:020000040800F2
:1000000000500020F10600084707000853070008C9
:10001000590700085F070008650700080000000096
:100020000000000000000000000000006B07000856
:100030007707000800000000830700089107000808
:100040004507000845070008450700084507000860
:100050004507000845070008AD070008E507000848
:10006000F1070008FD0700084507000845070008DC
:10007000450700080908000845070008450700086B
:100080004507000845070008450700084507000820
:100090004507000845070008450700084507000810
:1000A0004507000845070008450700084507000800
:1000B00045070008450700084507000845070008F0
:1000C00045070008450700084507000845070008E0
:1000D00045070008450700084507000845070008D0
:1000E0004507000845070008450700080000000014
:1000F0000000000000000000000000000000000000
:0C01000000000000000000005FF808F1A3
:10010C0010B5054C237833B9044B13B10448AFF345
:10011C0000800123237010BD14000020000000009B
:10012C00A00A000808B5034B1BB103490348AFF301
:10013C00008008BD0000000018000020A00A000884
:10014C0080B483B000AF03463960FB7197F9073078
:10015C00002B0BDA0D49FB7903F00F03043B3A68D3
:10016C00D2B21201D2B20B441A7609E0084997F9BF
:10017C0007303A68D2B21201D2B20B4483F8002392
:10018C0000BF0C37BD4680BC704700BF00ED00E0DF
:10019C0000E100E080B582B000AF78607B68B3F11D
:1001AC00807F01D3012311E00A4A7B6823F07F434F
:1001BC00013B53600F214FF0FF30FFF7C1FF054BA0
:1001CC0000229A60034B07221A6000231846083756
:1001DC00BD4680BD10E000E080B485B000AF786013
:1001EC00074B1B68FB6000BF054B1A68FB68D21AF3
:1001FC007B689A42F8D300BF1437BD4680BC704769
:10020C003000002080B582B000AF00F04BFB0E4BED
:10021C001B680E4A934200D0FEE70B4B1B680C4A3E
:10022C00A2FB03239B091846FFF7B4FF78607B6899
:10023C00002B00D0FEE700214FF0FF30FFF780FFCE
:10024C0000BF0837BD4680BD0000002000127A00B8
:10025C00D34D621080B584B000AFB9607A603B605A
:10026C000346FB73FB7B012B06D1554A544B5B6950
:10027C0043F00103536108E0FB7B022B05D1504A8C
:10028C004F4B5B6943F001035361B86800F0CCF845
:10029C007A68BB689A603A68BB68DA60BB68BA690E
:1002AC005A60BB681B6823F44072BB681A60FB6918
:1002BC00002B05D0BB681A68FB691A43BB681A602F
:1002CC00BB681B6823F44062BB681A603B6A002B56
:1002DC0005D0BB681A683B6A1A43BB681A60BB68D6
:1002EC001B6823F44052BB681A607B6A002B05D054
:1002FC00BB681A687B6A1A43BB681A60BB6A002B1E
:10030C0006D1BB681B6823F04002BB681A6005E08D
:10031C00BB681B6843F04002BB681A60FB6A002B89
:10032C0006D1BB681B6823F08002BB681A6005E02D
:10033C00BB681B6843F08002BB681A6097F83430C6
:10034C00002B17D1BB681B6823F48042BB681A6072
:10035C0097F83030002B06D1BB681B6823F02002C5
:10036C00BB681A600CE0BB681B6843F02002BB68DA
:10037C001A6005E0BB681B6843F48042BB681A60D6
:10038C0097F83830002B06D1BB681B6823F010029D
:10039C00BB681A6005E0BB681B6843F01002BB68C1
:1003AC001A60BB681B6843F00202BB681A6000BF8E
:1003BC0000BF00BF00BF00BF1037BD4680BD00BFEF
:1003CC000010024080B483B000AF78600B46FB7025
:1003DC001346BB70FB78012B0BD11149104B5B689A
:1003EC00BA78013A9200012000FA02F213434B60F2
:1003FC000AE00C490B4B5B68BA78013A9200012079
:10040C0000FA02F213434B607B681B6843F0010255
:10041C007B681A6000BF0C37BD4680BC704700BFBC
:10042C00000002400004024080B483B000AF78604A
:10043C007B681B6823F001027B681A6000BF0C37D5
:10044C00BD4680BC7047000080B400AF154A154B08
:10045C009B6943F001039361134A134B9B689360B0
:10046C00124A124B9B6843F0010393600F4A0F4BE7
:10047C00DB6823F00103D3600C4A0C4B1B6843F080
:10048C0001031360094A094B5B6843F00103536095
:10049C00064A064B5B6943F00103536100BFBD463E
:1004AC0080BC704700100240000001400004014075
:1004BC0080B400AF104A104B9B6943F0100393615A
:1004CC000E4A0E4B5B6823F4401353600B4A0B4BE4
:1004DC005B6843F400135360084A084B5B6823F4D1
:1004EC0040035360054A054BDB6843F40053D3606B
:1004FC0000BFBD4680BC7047001002400010014098
:10050C0080B400AF104A104B9B6943F00403936115
:10051C000E4A0E4B1B6823F0030313600B4A0B4B64
:10052C001B6823F004031360084A084B1B6843F054
:10053C0008031360054A054BDB6823F00103D36005
:10054C0000BFBD4680BC704700100240000801404F
:10055C0080B485B000AF78607B6803F00703FB6064
:10056C000C4BDB68BB60BA684FF6FF031340BB60F3
:10057C00FB681A02BB68134343F0BF6343F40033B8
:10058C00BB60044ABB68D36000BF1437BD4680BC57
:10059C00704700BF00ED00E080B483B000AF0346AD
:1005AC00FB71084997F907305B09FA7902F01F02D1
:1005BC00012000FA02F241F8232000BF0C37BD469F
:1005CC0080BC704700E100E080B483B000AF03460C
:1005DC003960FB7197F90730002B0BDA0D49FB7969
:1005EC0003F00F03043B3A68D2B21201D2B20B44AF
:1005FC001A7609E0084997F907303A68D2B2120125
:10060C00D2B20B4483F8002300BF0C37BD4680BC2C
:10061C00704700BF00ED00E000E100E080B500AFE6
:10062C000320FFF795FF02210620FFF7CDFF0121E4
:10063C000D20FFF7C9FF0620FFF7AEFF0D20FFF7D7
:10064C00ABFF00BF80BD000080B58CB00AAFFFF7D8
:10065C00D9FDFFF72DFFFFF753FFFFF7F5FEFFF76F
:10066C00DDFF012308930123079300230693012345
:10067C000593012304934FF4405303934FF4006309
:10068C0002934FF4007301934FF4FA730093114BE0
:10069C00114A12490120FFF7DDFD00237B6007E0C2
:1006AC007A680C497B6841F823207B6801337B60B6
:1006BC007B68B3F5FA7FF3D3094B01221A6062B65B
:1006CC00074B00221A60032201210448FFF77AFE2F
:1006DC00FEE700BF34000020040800203000024078
:1006EC00B4012242DFF838D072B6002103E00D4B82
:1006FC005B58435004310C480C4B42189A42F6D3C9
:10070C000B4A02E0002342F8043B0A4B9A42F9D30D
:10071C0000F094F800F09AF9FFF796FF704700008C
:10072C0000500020C00A0008000000201400002027
:10073C0014000020D40F0020FEE780B400AF00BFEF
:10074C00BD4680BC704780B400AFFEE780B400AFFC
:10075C00FEE780B400AFFEE780B400AFFEE780B4E4
:10076C0000AF00BFBD4680BC704780B400AF00BF77
:10077C00BD4680BC704780B400AF00BFBD4680BC96
:10078C007047000080B400AF044B1B680133034A70
:10079C00136000BFBD4680BC704700BF3000002016
:1007AC0080B500AF0A4B00221A604FF47A70FFF745
:1007BC0013FD074B01221A604FF47A70FFF70CFD02
:1007CC00044A044B5B6943F00103536100BF80BDD5
:1007DC00B40122420004014080B400AF00BFBD460A
:1007EC0080BC704780B400AF00BFBD4680BC704772
:1007FC0080B400AF00BFBD4680BC704780B400AF72
:10080C000C4B1B6803F40073B3F5007F08D10A4B43
:10081C0001221A60074A074B5B6843F4007353606C
:10082C00044A044B5B6843F48073536000BFBD46BD
:10083C0080BC704700000240B401224280B500AF7A
:10084C00154A154B1B6843F0010313601249124BF8
:10085C005A68124B13404B600F4A0F4B1B6823F026
:10086C00847323F4803313600B4A0B4B1B6823F403
:10087C0080231360084A084B5B6823F4FE03536023
:10088C00054B4FF41F029A6000F078F8044B4FF0C0
:10089C0000629A6000BF80BD001002400000FFF8AB
:1008AC0000ED00E080B485B000AF0023FB600023B6
:1008BC00BB6000237B602C4B5B6803F00C03FB607C
:1008CC00FB68042B07D0082B09D0002B33D1274B06
:1008DC00274A1A6033E0254B254A1A602FE0224B39
:1008EC005B6803F47013BB601F4B5B6803F48033CD
:1008FC007B60BB689B0C0233BB607B68002B06D112
:10090C00BB681C4A02FB03F3184A136017E0164B32
:10091C005B6803F40033002B06D0BB68154A02FB5E
:10092C0003F3124A13600AE0BB68114A02FB03F39B
:10093C000E4A136003E00D4B0D4A1A6000BF0A4BC0
:10094C005B681B0903F00F030B4AD35CDBB2FB6043
:10095C00064B1A68FB6822FA03F3044A136000BFC3
:10096C001437BD4680BC70470010024000000020C8
:10097C0000127A0000093D000400002080B500AF91
:10098C0000F002F800BF80BD80B483B000AF00233C
:10099C007B6000233B602B4A2A4B1B6843F480335B
:1009AC001360284B1B6803F400333B607B680133F6
:1009BC007B603B68002B03D17B68B3F5A06FF0D153
:1009CC00204B1B6803F40033002B02D001233B6047
:1009DC0001E000233B603B68012B2ED11A4A1A4BD5
:1009EC001B6843F010031360174A174B1B6823F066
:1009FC0003031360144A144B1B681360114A114B08
:100A0C005B6853600F4A0F4B5B6853600D4A0D4B8C
:100A1C005B6853600B4A0B4B5B6823F0030353601A
:100A2C00084A084B5B6843F00103536000BF054B59
:100A3C005B6803F00C03042BF9D100BF0C37BD46E7
:100A4C0080BC7047001002400020024070B50025A9
:100A5C000C4E0D4CA41BA410A54209D100F01AF8A1
:100A6C0000250A4E0A4CA41BA410A54205D170BD4A
:100A7C0056F8253098470135EEE756F8253098475B
:100A8C000135F2E7B80A0008B80A0008B80A0008ED
:100A9C00BC0A0008F8B500BFF8BC08BC9E467047FD
:0C0AAC00F8B500BFF8BC08BC9E467047BF
:040AB8003101000800
:040ABC000D01000820
:100AC00000127A0000000000000000000102030490
:040AD0000607080904
:04000005080006F1F8
:00000001FF
